{
  "_format": "hh-sol-artifact-1",
  "contractName": "DecentralizedPrice",
  "sourceName": "contracts/XRC20PriceTracker.sol",
  "abi": [
    {
      "inputs": [
        {
          "internalType": "address",
          "name": "_pli",
          "type": "address"
        }
      ],
      "stateMutability": "nonpayable",
      "type": "constructor"
    },
    {
      "anonymous": false,
      "inputs": [
        {
          "indexed": true,
          "internalType": "bytes32",
          "name": "id",
          "type": "bytes32"
        }
      ],
      "name": "PluginCancelled",
      "type": "event"
    },
    {
      "anonymous": false,
      "inputs": [
        {
          "indexed": true,
          "internalType": "bytes32",
          "name": "id",
          "type": "bytes32"
        }
      ],
      "name": "PluginFulfilled",
      "type": "event"
    },
    {
      "anonymous": false,
      "inputs": [
        {
          "indexed": true,
          "internalType": "bytes32",
          "name": "id",
          "type": "bytes32"
        }
      ],
      "name": "PluginRequested",
      "type": "event"
    },
    {
      "anonymous": false,
      "inputs": [
        {
          "indexed": true,
          "internalType": "bytes32",
          "name": "requestId",
          "type": "bytes32"
        },
        {
          "indexed": true,
          "internalType": "uint256",
          "name": "price",
          "type": "uint256"
        }
      ],
      "name": "RequestPriceFulfilled",
      "type": "event"
    },
    {
      "anonymous": false,
      "inputs": [
        {
          "indexed": true,
          "internalType": "address",
          "name": "requester",
          "type": "address"
        },
        {
          "indexed": true,
          "internalType": "bytes32",
          "name": "jobId",
          "type": "bytes32"
        },
        {
          "indexed": true,
          "internalType": "bytes32",
          "name": "requestId",
          "type": "bytes32"
        }
      ],
      "name": "requestCreated",
      "type": "event"
    },
    {
      "inputs": [
        {
          "internalType": "bytes32",
          "name": "_requestId",
          "type": "bytes32"
        },
        {
          "internalType": "uint256",
          "name": "_payment",
          "type": "uint256"
        },
        {
          "internalType": "bytes4",
          "name": "_callbackFunctionId",
          "type": "bytes4"
        },
        {
          "internalType": "uint256",
          "name": "_expiration",
          "type": "uint256"
        }
      ],
      "name": "cancelRequest",
      "outputs": [],
      "stateMutability": "nonpayable",
      "type": "function"
    },
    {
      "inputs": [],
      "name": "contractowner",
      "outputs": [
        {
          "internalType": "address",
          "name": "",
          "type": "address"
        }
      ],
      "stateMutability": "view",
      "type": "function"
    },
    {
      "inputs": [
        {
          "internalType": "bytes32",
          "name": "_requestId",
          "type": "bytes32"
        },
        {
          "internalType": "uint256",
          "name": "_price",
          "type": "uint256"
        }
      ],
      "name": "fulfillPrice",
      "outputs": [],
      "stateMutability": "nonpayable",
      "type": "function"
    },
    {
      "inputs": [],
      "name": "getPluginToken",
      "outputs": [
        {
          "internalType": "address",
          "name": "",
          "type": "address"
        }
      ],
      "stateMutability": "view",
      "type": "function"
    },
    {
      "inputs": [
        {
          "internalType": "address",
          "name": "_oracle",
          "type": "address"
        },
        {
          "internalType": "string",
          "name": "_jobId",
          "type": "string"
        },
        {
          "internalType": "string",
          "name": "_fsymbol",
          "type": "string"
        },
        {
          "internalType": "string",
          "name": "_tsymbol",
          "type": "string"
        },
        {
          "internalType": "address",
          "name": "_requestor",
          "type": "address"
        }
      ],
      "name": "requestPrice",
      "outputs": [
        {
          "internalType": "bytes32",
          "name": "requestId",
          "type": "bytes32"
        }
      ],
      "stateMutability": "nonpayable",
      "type": "function"
    },
    {
      "inputs": [],
      "name": "withdrawPli",
      "outputs": [],
      "stateMutability": "nonpayable",
      "type": "function"
    }
  ],
  "bytecode": "0x6080604052600160045534801561001557600080fd5b5060405161172738038061172783398101604081905261003491610087565b600280546001600160a01b0319166001600160a01b03831617905560078054336001600160a01b0319909116179055610078600661007e602090811b61078917901c565b506100b5565b80546001019055565b600060208284031215610098578081fd5b81516001600160a01b03811681146100ae578182fd5b9392505050565b611663806100c46000396000f3fe608060405234801561001057600080fd5b50600436106100625760003560e01c806337fccd301461006757806342a45469146100715780636098c94c146100975780638d2a648d146100c2578063a4b6f67e146100d5578063ec65d0f8146100dd575b600080fd5b61006f6100f0565b005b61008461007f3660046111df565b61024f565b6040519081526020015b60405180910390f35b6007546100aa906001600160a01b031681565b6040516001600160a01b03909116815260200161008e565b61006f6100d03660046112a5565b6104df565b6100aa61075e565b61006f6100eb3660046112c6565b610777565b60006101046002546001600160a01b031690565b6040516370a0823160e01b81523060048201529091506001600160a01b0382169063a9059cbb90339083906370a082319060240160206040518083038186803b15801561015057600080fd5b505afa158015610164573d6000803e3d6000fd5b505050506040513d601f19601f820116820180604052508101906101889190611310565b6040516001600160e01b031960e085901b1681526001600160a01b0390921660048301526024820152604401602060405180830381600087803b1580156101ce57600080fd5b505af11580156101e2573d6000803e3d6000fd5b505050506040513d601f19601f820116820180604052508101906102069190611285565b61024c5760405162461bcd60e51b81526020600482015260126024820152712ab730b13632903a37903a3930b739b332b960711b60448201526064015b60405180910390fd5b50565b60008061025c6006610792565b6040805160e0810182528281526001600160a01b0386811660208084019182528385018b8152606085018b905260006080860181905260a0860181905260c0860181905287815260088352959095208451815591516001830180546001600160a01b03191691909416179092559251805194955091936102e29260028501920190610ff2565b50606082015180516102fe916003840191602090910190610ff2565b506080820151600482015560a0820151600582015560c0909101516006909101805460ff1916911515919091179055600061034961033b8861079a565b30638d2a648d60e01b6107b8565b604080518082019091526007815266199cde5b589bdb60ca1b6020820152909150610376908290886107df565b6040805180820190915260078152661d1cde5b589bdb60ca1b60208201526103a0908290876107df565b60408051808201909152600581526474696d657360d81b60208201526103d0908290670de0b6b3a7640000610802565b6103e3888267016345785d8a0000610820565b600083815260086020908152604080832084845260099092529091208154815560018083015490820180546001600160a01b0319166001600160a01b03909216919091179055600280830180549497509293919290830191610444906115ac565b61044f929190611076565b506003820181600301908054610464906115ac565b61046f929190611076565b5060048281015490820155600580830154908201556006918201549101805460ff191660ff9092161515919091179055826104a98861079a565b60405133907f7f3df4038a13e7b83557e5a0ebf67fec07391a522319ab42e81255e88de18ffb90600090a4505095945050505050565b60008281526005602052604090205482906001600160a01b031633146105585760405162461bcd60e51b815260206004820152602860248201527f536f75726365206d75737420626520746865206f7261636c65206f6620746865604482015267081c995c5d595cdd60c21b6064820152608401610243565b60008181526005602052604080822080546001600160a01b03191690555182917fa40ad10b942505047c532a7399bf5eac2768b11b7155b40ec80309aea567f99891a26000838152600960209081526040808320815160e0810183528154815260018201546001600160a01b03169381019390935260028101805491928401916105e1906115ac565b80601f016020809104026020016040519081016040528092919081815260200182805461060d906115ac565b801561065a5780601f1061062f5761010080835404028352916020019161065a565b820191906000526020600020905b81548152906001019060200180831161063d57829003601f168201915b50505050508152602001600382018054610673906115ac565b80601f016020809104026020016040519081016040528092919081815260200182805461069f906115ac565b80156106ec5780601f106106c1576101008083540402835291602001916106ec565b820191906000526020600020905b8154815290600101906020018083116106cf57829003601f168201915b505050918352505060048201546020820152600582015460408083019190915260069092015460ff161515606090910152608082018590524260a083015251909150839085907fc2d94e2e1f0c977bdf720bde3bd6b0ff77c8853d45d1f47089f6065139e3fef790600090a350505050565b60006107726002546001600160a01b031690565b905090565b6107838484848461083f565b50505050565b80546001019055565b80545b919050565b805160009082906107af575060009050610795565b50506020015190565b6107c06110f1565b6107c86110f1565b6107d481868686610911565b9150505b9392505050565b60808301516107ee908361094e565b60808301516107fd908261094e565b505050565b6080830151610811908361094e565b60808301516107fd9082610965565b600061083784848460016320214ca360e11b6109ce565b949350505050565b60008481526005602052604080822080546001600160a01b0319811690915590516001600160a01b039091169186917f715822738dad692e521ebc0193d189bf23153eb1d4420173d6b30cd8add9f9a69190a2604051636ee4d55360e01b815260048101869052602481018590526001600160e01b031984166044820152606481018390526001600160a01b03821690636ee4d55390608401600060405180830381600087803b1580156108f257600080fd5b505af1158015610906573d6000803e3d6000fd5b505050505050505050565b6109196110f1565b6109298560800151610100610bda565b50509183526001600160a01b031660208301526001600160e01b031916604082015290565b61095b8260038351610c45565b6107fd8282610d19565b67ffffffffffffffff19811215610985576109808282610d40565b6109ca565b67ffffffffffffffff81131561099f576109808282610d82565b600081126109b35761098082600083610c45565b6109ca8260016109c584600019611556565b610c45565b5050565b6004546040516bffffffffffffffffffffffff193060601b166020820152603481019190915260009060540160408051808303601f19018152918152815160209283012060045460608901526000818152600590935281832080546001600160a01b0319166001600160a01b038b16179055905190925082917fa6745906207afb96a5801b8e5711fd7b74c5780ce893a973806e179d675bbe2491a2600082600080886000015189602001518a604001518b606001518a8d6080015160000151604051602401610aa5989796959493929190611373565b60408051601f198184030181529181526020820180516001600160e01b03166001600160e01b0319909416939093179092526002549151630200057560e51b81529092506001600160a01b0390911690634000aea090610b0d908a90899086906004016113db565b602060405180830381600087803b158015610b2757600080fd5b505af1158015610b3b573d6000803e3d6000fd5b505050506040513d601f19601f82011682018060405250810190610b5f9190611285565b610bb75760405162461bcd60e51b815260206004820152602360248201527f756e61626c6520746f207472616e73666572416e6443616c6c20746f206f7261604482015262636c6560e81b6064820152608401610243565b600160046000828254610bca919061140b565b9091555091979650505050505050565b604080518082019091526060815260006020820152610bfa6020836115e1565b15610c2257610c0a6020836115e1565b610c15906020611595565b610c1f908361140b565b91505b506020808301829052604080518085526000815283019091019052815b92915050565b60178111610c6657610c608360e0600585901b168317610da5565b506107fd565b60ff8111610c9057610c83836018611fe0600586901b1617610da5565b50610c6083826001610dca565b61ffff8111610cbb57610cae836019611fe0600586901b1617610da5565b50610c6083826002610dca565b63ffffffff8111610ce857610cdb83601a611fe0600586901b1617610da5565b50610c6083826004610dca565b67ffffffffffffffff81116107fd57610d0c83601b611fe0600586901b1617610da5565b5061078383826008610dca565b6040805180820190915260608152600060208201526107d883846000015151848551610df0565b610d4b8260c3610da5565b506109ca82610d5c83600019611556565b604051602001610d6e91815260200190565b604051602081830303815290604052610eda565b610d8d8260c2610da5565b506109ca8282604051602001610d6e91815260200190565b6040805180820190915260608152600060208201526107d88384600001515184610ee7565b604080518082019091526060815260006020820152610837848560000151518585610f43565b6040805180820190915260608152600060208201528251821115610e1357600080fd5b6020850151610e22838661140b565b1115610e5557610e5585610e4587602001518786610e40919061140b565b610fc4565b610e50906002611537565b610fdb565b600080865180518760208301019350808887011115610e745787860182525b505050602084015b60208410610eb45780518252610e9360208361140b565b9150610ea060208261140b565b9050610ead602085611595565b9350610e7c565b51815160001960208690036101000a019081169019919091161790525083949350505050565b61095b8260028351610c45565b60408051808201909152606081526000602082015283602001518310610f1c57610f1c8485602001516002610e509190611537565b835180516020858301018481535080851415610f39576001810182525b5093949350505050565b6040805180820190915260608152600060208201526020850151610f67858461140b565b1115610f7b57610f7b85610e45868561140b565b60006001610f8b84610100611469565b610f959190611595565b9050855183868201018583198251161781525080518487011115610fb95783860181525b509495945050505050565b600081831115610fd5575081610c3f565b50919050565b8151610fe78383610bda565b506107838382610d19565b828054610ffe906115ac565b90600052602060002090601f0160209004810192826110205760008555611066565b82601f1061103957805160ff1916838001178555611066565b82800160010185558215611066579182015b8281111561106657825182559160200191906001019061104b565b5061107292915061112c565b5090565b828054611082906115ac565b90600052602060002090601f0160209004810192826110a45760008555611066565b82601f106110b55780548555611066565b8280016001018555821561106657600052602060002091601f016020900482015b828111156110665782548255916001019190600101906110d6565b6040805160a0810182526000808252602080830182905282840182905260608084018390528451808601909552845283015290608082015290565b5b80821115611072576000815560010161112d565b80356001600160a01b038116811461079557600080fd5b600082601f830112611168578081fd5b813567ffffffffffffffff8082111561118357611183611617565b604051601f8301601f19908116603f011681019082821181831017156111ab576111ab611617565b816040528381528660208588010111156111c3578485fd5b8360208701602083013792830160200193909352509392505050565b600080600080600060a086880312156111f6578081fd5b6111ff86611141565b9450602086013567ffffffffffffffff8082111561121b578283fd5b61122789838a01611158565b9550604088013591508082111561123c578283fd5b61124889838a01611158565b9450606088013591508082111561125d578283fd5b5061126a88828901611158565b92505061127960808701611141565b90509295509295909350565b600060208284031215611296578081fd5b815180151581146107d8578182fd5b600080604083850312156112b7578182fd5b50508035926020909101359150565b600080600080608085870312156112db578384fd5b843593506020850135925060408501356001600160e01b031981168114611300578283fd5b9396929550929360600135925050565b600060208284031215611321578081fd5b5051919050565b60008151808452815b8181101561134d57602081850181015186830182015201611331565b8181111561135e5782602083870101525b50601f01601f19169290920160200192915050565b6001600160a01b0389811682526020820189905260408201889052861660608201526001600160e01b03198516608082015260a0810184905260c0810183905261010060e082018190526000906113cc83820185611328565b9b9a5050505050505050505050565b600060018060a01b0385168252836020830152606060408301526114026060830184611328565b95945050505050565b6000821982111561141e5761141e611601565b500190565b80825b60018086116114355750611460565b81870482111561144757611447611601565b8086161561145457918102915b9490941c938002611426565b94509492505050565b60006107d86000198484600082611482575060016107d8565b8161148f575060006107d8565b81600181146114a557600281146114af576114dc565b60019150506107d8565b60ff8411156114c0576114c0611601565b6001841b9150848211156114d6576114d6611601565b506107d8565b5060208310610133831016604e8410600b841016171561150f575081810a8381111561150a5761150a611601565b6107d8565b61151c8484846001611423565b80860482111561152e5761152e611601565b02949350505050565b600081600019048311821515161561155157611551611601565b500290565b60008083128015600160ff1b85018412161561157457611574611601565b6001600160ff1b038401831381161561158f5761158f611601565b50500390565b6000828210156115a7576115a7611601565b500390565b6002810460018216806115c057607f821691505b60208210811415610fd557634e487b7160e01b600052602260045260246000fd5b6000826115fc57634e487b7160e01b81526012600452602481fd5b500690565b634e487b7160e01b600052601160045260246000fd5b634e487b7160e01b600052604160045260246000fdfea264697066735822122038bd70150fea201f239fcbc5a3d2a48b733e64f123b9b424caea75b231f5f98864736f6c63430008020033",
  "linkReferences": {},
  "deployedLinkReferences": {}
}